{
  "contractName": "LuckyMintLotto",
  "abi": [
    {
      "inputs": [
        {
          "internalType": "address",
          "name": "_L",
          "type": "address"
        }
      ],
      "stateMutability": "nonpayable",
      "type": "constructor"
    },
    {
      "anonymous": false,
      "inputs": [
        {
          "indexed": false,
          "internalType": "address",
          "name": "account",
          "type": "address"
        }
      ],
      "name": "Paused",
      "type": "event"
    },
    {
      "anonymous": false,
      "inputs": [
        {
          "indexed": true,
          "internalType": "bytes32",
          "name": "role",
          "type": "bytes32"
        },
        {
          "indexed": true,
          "internalType": "bytes32",
          "name": "previousAdminRole",
          "type": "bytes32"
        },
        {
          "indexed": true,
          "internalType": "bytes32",
          "name": "newAdminRole",
          "type": "bytes32"
        }
      ],
      "name": "RoleAdminChanged",
      "type": "event"
    },
    {
      "anonymous": false,
      "inputs": [
        {
          "indexed": true,
          "internalType": "bytes32",
          "name": "role",
          "type": "bytes32"
        },
        {
          "indexed": true,
          "internalType": "address",
          "name": "account",
          "type": "address"
        },
        {
          "indexed": true,
          "internalType": "address",
          "name": "sender",
          "type": "address"
        }
      ],
      "name": "RoleGranted",
      "type": "event"
    },
    {
      "anonymous": false,
      "inputs": [
        {
          "indexed": true,
          "internalType": "bytes32",
          "name": "role",
          "type": "bytes32"
        },
        {
          "indexed": true,
          "internalType": "address",
          "name": "account",
          "type": "address"
        },
        {
          "indexed": true,
          "internalType": "address",
          "name": "sender",
          "type": "address"
        }
      ],
      "name": "RoleRevoked",
      "type": "event"
    },
    {
      "anonymous": false,
      "inputs": [
        {
          "indexed": false,
          "internalType": "address",
          "name": "account",
          "type": "address"
        }
      ],
      "name": "Unpaused",
      "type": "event"
    },
    {
      "inputs": [],
      "name": "CEO",
      "outputs": [
        {
          "internalType": "bytes32",
          "name": "",
          "type": "bytes32"
        }
      ],
      "stateMutability": "view",
      "type": "function"
    },
    {
      "inputs": [],
      "name": "CFO",
      "outputs": [
        {
          "internalType": "bytes32",
          "name": "",
          "type": "bytes32"
        }
      ],
      "stateMutability": "view",
      "type": "function"
    },
    {
      "inputs": [],
      "name": "CTO",
      "outputs": [
        {
          "internalType": "bytes32",
          "name": "",
          "type": "bytes32"
        }
      ],
      "stateMutability": "view",
      "type": "function"
    },
    {
      "inputs": [],
      "name": "DEFAULT_ADMIN_ROLE",
      "outputs": [
        {
          "internalType": "bytes32",
          "name": "",
          "type": "bytes32"
        }
      ],
      "stateMutability": "view",
      "type": "function"
    },
    {
      "inputs": [
        {
          "internalType": "bytes32",
          "name": "role",
          "type": "bytes32"
        }
      ],
      "name": "getRoleAdmin",
      "outputs": [
        {
          "internalType": "bytes32",
          "name": "",
          "type": "bytes32"
        }
      ],
      "stateMutability": "view",
      "type": "function"
    },
    {
      "inputs": [
        {
          "internalType": "bytes32",
          "name": "role",
          "type": "bytes32"
        },
        {
          "internalType": "address",
          "name": "account",
          "type": "address"
        }
      ],
      "name": "grantRole",
      "outputs": [],
      "stateMutability": "nonpayable",
      "type": "function"
    },
    {
      "inputs": [
        {
          "internalType": "bytes32",
          "name": "role",
          "type": "bytes32"
        },
        {
          "internalType": "address",
          "name": "account",
          "type": "address"
        }
      ],
      "name": "hasRole",
      "outputs": [
        {
          "internalType": "bool",
          "name": "",
          "type": "bool"
        }
      ],
      "stateMutability": "view",
      "type": "function"
    },
    {
      "inputs": [],
      "name": "paused",
      "outputs": [
        {
          "internalType": "bool",
          "name": "",
          "type": "bool"
        }
      ],
      "stateMutability": "view",
      "type": "function"
    },
    {
      "inputs": [
        {
          "internalType": "bytes32",
          "name": "role",
          "type": "bytes32"
        },
        {
          "internalType": "address",
          "name": "account",
          "type": "address"
        }
      ],
      "name": "renounceRole",
      "outputs": [],
      "stateMutability": "nonpayable",
      "type": "function"
    },
    {
      "inputs": [
        {
          "internalType": "bytes32",
          "name": "role",
          "type": "bytes32"
        },
        {
          "internalType": "address",
          "name": "account",
          "type": "address"
        }
      ],
      "name": "revokeRole",
      "outputs": [],
      "stateMutability": "nonpayable",
      "type": "function"
    },
    {
      "inputs": [
        {
          "internalType": "bytes4",
          "name": "interfaceId",
          "type": "bytes4"
        }
      ],
      "name": "supportsInterface",
      "outputs": [
        {
          "internalType": "bool",
          "name": "",
          "type": "bool"
        }
      ],
      "stateMutability": "view",
      "type": "function"
    },
    {
      "inputs": [],
      "name": "winner",
      "outputs": [
        {
          "internalType": "address",
          "name": "",
          "type": "address"
        }
      ],
      "stateMutability": "view",
      "type": "function"
    },
    {
      "inputs": [],
      "name": "winningNumber",
      "outputs": [
        {
          "internalType": "uint256",
          "name": "",
          "type": "uint256"
        }
      ],
      "stateMutability": "view",
      "type": "function"
    },
    {
      "inputs": [],
      "name": "getPrice",
      "outputs": [
        {
          "internalType": "uint256",
          "name": "",
          "type": "uint256"
        }
      ],
      "stateMutability": "view",
      "type": "function"
    },
    {
      "inputs": [],
      "name": "getDollar",
      "outputs": [
        {
          "internalType": "uint256",
          "name": "",
          "type": "uint256"
        }
      ],
      "stateMutability": "view",
      "type": "function"
    },
    {
      "inputs": [],
      "name": "getPot",
      "outputs": [
        {
          "internalType": "uint256",
          "name": "",
          "type": "uint256"
        }
      ],
      "stateMutability": "view",
      "type": "function"
    },
    {
      "inputs": [],
      "name": "getPotUSD",
      "outputs": [
        {
          "internalType": "uint256",
          "name": "",
          "type": "uint256"
        }
      ],
      "stateMutability": "view",
      "type": "function"
    },
    {
      "inputs": [],
      "name": "getAnnounceDate",
      "outputs": [
        {
          "internalType": "uint256",
          "name": "",
          "type": "uint256"
        }
      ],
      "stateMutability": "view",
      "type": "function"
    },
    {
      "inputs": [],
      "name": "getTicketCount",
      "outputs": [
        {
          "internalType": "uint256",
          "name": "",
          "type": "uint256"
        }
      ],
      "stateMutability": "view",
      "type": "function"
    },
    {
      "inputs": [],
      "name": "getPlayerCount",
      "outputs": [
        {
          "internalType": "uint256",
          "name": "",
          "type": "uint256"
        }
      ],
      "stateMutability": "view",
      "type": "function"
    },
    {
      "inputs": [
        {
          "internalType": "uint256",
          "name": "_start",
          "type": "uint256"
        },
        {
          "internalType": "uint256",
          "name": "_duration",
          "type": "uint256"
        }
      ],
      "name": "startLottery",
      "outputs": [],
      "stateMutability": "nonpayable",
      "type": "function"
    },
    {
      "inputs": [],
      "name": "resetLottery",
      "outputs": [],
      "stateMutability": "nonpayable",
      "type": "function"
    },
    {
      "inputs": [],
      "name": "BuyTicket",
      "outputs": [],
      "stateMutability": "payable",
      "type": "function"
    },
    {
      "inputs": [],
      "name": "AnnounceLotteryWinner",
      "outputs": [
        {
          "internalType": "address",
          "name": "",
          "type": "address"
        }
      ],
      "stateMutability": "nonpayable",
      "type": "function"
    },
    {
      "inputs": [],
      "name": "claim",
      "outputs": [],
      "stateMutability": "nonpayable",
      "type": "function"
    }
  ],
  "bytecode": "0x608060405273d8806d66e24b702e0a56fb972b75d24cad656821600260006101000a81548173ffffffffffffffffffffffffffffffffffffffff021916908373ffffffffffffffffffffffffffffffffffffffff1602179055503480156200006657600080fd5b5060405162002c5e38038062002c5e83398181016040528101906200008c919062000373565b60008060006101000a81548160ff02191690831515021790555073ab594600376ec9fd91f8e885dadf0ce036862de0600d60016101000a81548173ffffffffffffffffffffffffffffffffffffffff021916908373ffffffffffffffffffffffffffffffffffffffff16021790555080600e60006101000a81548173ffffffffffffffffffffffffffffffffffffffff021916908373ffffffffffffffffffffffffffffffffffffffff1602179055506000600d60006101000a81548160ff0219169083151502179055506200016c6000801b33620001a560201b60201c565b6200019e7fdc0d7a095c4e917ecbeb7deda7c942ff9744013d419e37549215a413915e421d33620001a560201b60201c565b50620003a5565b620001b782826200029660201b60201c565b6200029257600180600084815260200190815260200160002060000160008373ffffffffffffffffffffffffffffffffffffffff1673ffffffffffffffffffffffffffffffffffffffff16815260200190815260200160002060006101000a81548160ff021916908315150217905550620002376200030160201b60201c565b73ffffffffffffffffffffffffffffffffffffffff168173ffffffffffffffffffffffffffffffffffffffff16837f2f8788117e7eff1d82e926ec794901d17c78024a50270940304540a733656f0d60405160405180910390a45b5050565b60006001600084815260200190815260200160002060000160008373ffffffffffffffffffffffffffffffffffffffff1673ffffffffffffffffffffffffffffffffffffffff16815260200190815260200160002060009054906101000a900460ff16905092915050565b600033905090565b600080fd5b600073ffffffffffffffffffffffffffffffffffffffff82169050919050565b60006200033b826200030e565b9050919050565b6200034d816200032e565b81146200035957600080fd5b50565b6000815190506200036d8162000342565b92915050565b6000602082840312156200038c576200038b62000309565b5b60006200039c848285016200035c565b91505092915050565b6128a980620003b56000396000f3fe6080604052600436106101665760003560e01c80635c975abb116100d1578063a217fddf1161008a578063c2e5220611610064578063c2e52206146104ed578063d337616e14610518578063d547741f1461052f578063dfbf53ae1461055857610166565b8063a217fddf1461046e578063ab6c21ae14610499578063abe7f66d146104c257610166565b80635c975abb1461037b578063761aef78146103a6578063919e6def146103b057806391d14854146103db57806398d5fdca14610418578063a10885711461044357610166565b806330d500bf1161012357806330d500bf1461028f57806336568abe146102ba5780633d01bdec146102e3578063403c9fa81461030e5780634664611e146103395780634e71d92d1461036457610166565b806301ffc9a71461016b5780630a1d7ed2146101a857806321c63a47146101d3578063248a9ca3146101fe5780632f2ff15d1461023b5780632fa7f58a14610264575b600080fd5b34801561017757600080fd5b50610192600480360381019061018d9190611a49565b610583565b60405161019f9190611a91565b60405180910390f35b3480156101b457600080fd5b506101bd6105fd565b6040516101ca9190611ac5565b60405180910390f35b3480156101df57600080fd5b506101e8610632565b6040516101f59190611ac5565b60405180910390f35b34801561020a57600080fd5b5061022560048036038101906102209190611b16565b61063f565b6040516102329190611b52565b60405180910390f35b34801561024757600080fd5b50610262600480360381019061025d9190611bcb565b61065f565b005b34801561027057600080fd5b50610279610688565b6040516102869190611ac5565b60405180910390f35b34801561029b57600080fd5b506102a46106a9565b6040516102b19190611b52565b60405180910390f35b3480156102c657600080fd5b506102e160048036038101906102dc9190611bcb565b6106cd565b005b3480156102ef57600080fd5b506102f8610750565b6040516103059190611b52565b60405180910390f35b34801561031a57600080fd5b50610323610774565b6040516103309190611ac5565b60405180910390f35b34801561034557600080fd5b5061034e61077e565b60405161035b9190611ac5565b60405180910390f35b34801561037057600080fd5b50610379610784565b005b34801561038757600080fd5b50610390610a38565b60405161039d9190611a91565b60405180910390f35b6103ae610a4e565b005b3480156103bc57600080fd5b506103c5610d54565b6040516103d29190611c1a565b60405180910390f35b3480156103e757600080fd5b5061040260048036038101906103fd9190611bcb565b610fa3565b60405161040f9190611a91565b60405180910390f35b34801561042457600080fd5b5061042d61100e565b60405161043a9190611ac5565b60405180910390f35b34801561044f57600080fd5b506104586110bd565b6040516104659190611b52565b60405180910390f35b34801561047a57600080fd5b506104836110e1565b6040516104909190611b52565b60405180910390f35b3480156104a557600080fd5b506104c060048036038101906104bb9190611c61565b6110e8565b005b3480156104ce57600080fd5b506104d76111ff565b6040516104e49190611ac5565b60405180910390f35b3480156104f957600080fd5b50610502611209565b60405161050f9190611ac5565b60405180910390f35b34801561052457600080fd5b5061052d611213565b005b34801561053b57600080fd5b5061055660048036038101906105519190611bcb565b6113e9565b005b34801561056457600080fd5b5061056d611412565b60405161057a9190611c1a565b60405180910390f35b60007f7965db0b000000000000000000000000000000000000000000000000000000007bffffffffffffffffffffffffffffffffffffffffffffffffffffffff1916827bffffffffffffffffffffffffffffffffffffffffffffffffffffffff191614806105f657506105f582611438565b5b9050919050565b60008061060861100e565b905064e8d4a5100081655af3107a40006106229190611cff565b61062c9190611d30565b91505090565b6000600480549050905090565b600060016000838152602001908152602001600020600101549050919050565b6106688261063f565b610679816106746114a2565b6114aa565b6106838383611547565b505050565b600061069261100e565b61069a610774565b6106a49190611d30565b905090565b7f33fa24d9aab6b79237248a16094d5f78ea83bb51e42c123ce925a264e7d816cc81565b6106d56114a2565b73ffffffffffffffffffffffffffffffffffffffff168173ffffffffffffffffffffffffffffffffffffffff1614610742576040517f08c379a000000000000000000000000000000000000000000000000000000000815260040161073990611e0d565b60405180910390fd5b61074c8282611627565b5050565b7ff5562c8b4b9dcf5083521725556cccf96ad230969b26cc8a145f067d5ab9ac8381565b6000600554905090565b60095481565b60011515600d60009054906101000a900460ff161515146107a457600080fd5b600b5442116107e8576040517f08c379a00000000000000000000000000000000000000000000000000000000081526004016107df90611e9f565b60405180910390fd5b600c54421061082c576040517f08c379a000000000000000000000000000000000000000000000000000000000815260040161082390611f31565b60405180910390fd5b600360009054906101000a900473ffffffffffffffffffffffffffffffffffffffff1673ffffffffffffffffffffffffffffffffffffffff163373ffffffffffffffffffffffffffffffffffffffff16146108bc576040517f08c379a00000000000000000000000000000000000000000000000000000000081526004016108b390611f9d565b60405180910390fd5b6000600554905060001515600660009054906101000a900460ff16151514610919576040517f08c379a000000000000000000000000000000000000000000000000000000000815260040161091090612009565b60405180910390fd5b6000606460058361092a9190611d30565b6109349190611cff565b9050600081836109449190612029565b9050600260009054906101000a900473ffffffffffffffffffffffffffffffffffffffff1673ffffffffffffffffffffffffffffffffffffffff166108fc839081150290604051600060405180830381858888f193505050501580156109ae573d6000803e3d6000fd5b50600360009054906101000a900473ffffffffffffffffffffffffffffffffffffffff1673ffffffffffffffffffffffffffffffffffffffff166108fc829081150290604051600060405180830381858888f19350505050158015610a17573d6000803e3d6000fd5b506001600660006101000a81548160ff021916908315150217905550505050565b60008060009054906101000a900460ff16905090565b600a600860003373ffffffffffffffffffffffffffffffffffffffff1673ffffffffffffffffffffffffffffffffffffffff168152602001908152602001600020541115610ad1576040517f08c379a0000000000000000000000000000000000000000000000000000000008152600401610ac8906120a9565b60405180910390fd5b600b544210610b15576040517f08c379a0000000000000000000000000000000000000000000000000000000008152600401610b0c9061213b565b60405180910390fd5b6000610b1f6105fd565b905080341015610b64576040517f08c379a0000000000000000000000000000000000000000000000000000000008152600401610b5b906121cd565b60405180910390fd5b6004339080600181540180825580915050600190039060005260206000200160009091909190916101000a81548173ffffffffffffffffffffffffffffffffffffffff021916908373ffffffffffffffffffffffffffffffffffffffff160217905550600e60009054906101000a900473ffffffffffffffffffffffffffffffffffffffff1673ffffffffffffffffffffffffffffffffffffffff1663a1448194336001600a600480549050610c1a9190611d30565b610c2491906121ed565b6040518363ffffffff1660e01b8152600401610c41929190612243565b600060405180830381600087803b158015610c5b57600080fd5b505af1158015610c6f573d6000803e3d6000fd5b505050506000600860003373ffffffffffffffffffffffffffffffffffffffff1673ffffffffffffffffffffffffffffffffffffffff168152602001908152602001600020541415610cd657600160076000828254610cce91906121ed565b925050819055505b6001600860003373ffffffffffffffffffffffffffffffffffffffff1673ffffffffffffffffffffffffffffffffffffffff1681526020019081526020016000206000828254610d2691906121ed565b925050819055505a34610d399190612029565b60056000828254610d4a91906121ed565b9250508190555050565b6000610d807fdc0d7a095c4e917ecbeb7deda7c942ff9744013d419e37549215a413915e421d33610fa3565b80610db15750610db07f33fa24d9aab6b79237248a16094d5f78ea83bb51e42c123ce925a264e7d816cc33610fa3565b5b80610de25750610de17ff5562c8b4b9dcf5083521725556cccf96ad230969b26cc8a145f067d5ab9ac8333610fa3565b5b610e21576040517f08c379a0000000000000000000000000000000000000000000000000000000008152600401610e18906122de565b60405180910390fd5b600b544211610e65576040517f08c379a0000000000000000000000000000000000000000000000000000000008152600401610e5c90612370565b60405180910390fd5b60001515600d60009054906101000a900460ff16151514610ebb576040517f08c379a0000000000000000000000000000000000000000000000000000000008152600401610eb2906123dc565b60405180910390fd5b6000600480549050600143610ed09190612029565b4060001c610ede91906123fc565b905060048181548110610ef457610ef361242d565b5b9060005260206000200160009054906101000a900473ffffffffffffffffffffffffffffffffffffffff16600360006101000a81548173ffffffffffffffffffffffffffffffffffffffff021916908373ffffffffffffffffffffffffffffffffffffffff1602179055506001600d60006101000a81548160ff021916908315150217905550600360009054906101000a900473ffffffffffffffffffffffffffffffffffffffff1691505090565b60006001600084815260200190815260200160002060000160008373ffffffffffffffffffffffffffffffffffffffff1673ffffffffffffffffffffffffffffffffffffffff16815260200190815260200160002060009054906101000a900460ff16905092915050565b600080600080600080600d60019054906101000a900473ffffffffffffffffffffffffffffffffffffffff1673ffffffffffffffffffffffffffffffffffffffff1663feaf968c6040518163ffffffff1660e01b815260040160a060405180830381865afa158015611084573d6000803e3d6000fd5b505050506040513d601f19601f820116820180604052508101906110a891906124e9565b94509450945094509450839550505050505090565b7fdc0d7a095c4e917ecbeb7deda7c942ff9744013d419e37549215a413915e421d81565b6000801b81565b6111127fdc0d7a095c4e917ecbeb7deda7c942ff9744013d419e37549215a413915e421d33610fa3565b8061114357506111427f33fa24d9aab6b79237248a16094d5f78ea83bb51e42c123ce925a264e7d816cc33610fa3565b5b8061117457506111737ff5562c8b4b9dcf5083521725556cccf96ad230969b26cc8a145f067d5ab9ac8333610fa3565b5b6111b3576040517f08c379a00000000000000000000000000000000000000000000000000000000081526004016111aa906122de565b60405180910390fd5b6111bb611213565b81600a8190555062015180816111d19190611d30565b600a546111de91906121ed565b600b819055506202a300600b546111f591906121ed565b600c819055505050565b6000600b54905090565b6000600754905090565b61123d7fdc0d7a095c4e917ecbeb7deda7c942ff9744013d419e37549215a413915e421d33610fa3565b8061126e575061126d7f33fa24d9aab6b79237248a16094d5f78ea83bb51e42c123ce925a264e7d816cc33610fa3565b5b8061129f575061129e7ff5562c8b4b9dcf5083521725556cccf96ad230969b26cc8a145f067d5ab9ac8333610fa3565b5b6112de576040517f08c379a00000000000000000000000000000000000000000000000000000000081526004016112d5906122de565b60405180910390fd5b600c544211611322576040517f08c379a0000000000000000000000000000000000000000000000000000000008152600401611319906125d6565b60405180910390fd5b600067ffffffffffffffff81111561133d5761133c6125f6565b5b60405190808252806020026020018201604052801561136b5781602001602082028036833780820191505090505b5060049080519060200190611381929190611945565b5060006005819055506000600360006101000a81548173ffffffffffffffffffffffffffffffffffffffff021916908373ffffffffffffffffffffffffffffffffffffffff1602179055506000600660006101000a81548160ff021916908315150217905550565b6113f28261063f565b611403816113fe6114a2565b6114aa565b61140d8383611627565b505050565b600360009054906101000a900473ffffffffffffffffffffffffffffffffffffffff1681565b60007f01ffc9a7000000000000000000000000000000000000000000000000000000007bffffffffffffffffffffffffffffffffffffffffffffffffffffffff1916827bffffffffffffffffffffffffffffffffffffffffffffffffffffffff1916149050919050565b600033905090565b6114b48282610fa3565b611543576114d98173ffffffffffffffffffffffffffffffffffffffff166014611709565b6114e78360001c6020611709565b6040516020016114f8929190612737565b6040516020818303038152906040526040517f08c379a000000000000000000000000000000000000000000000000000000000815260040161153a91906127bb565b60405180910390fd5b5050565b6115518282610fa3565b61162357600180600084815260200190815260200160002060000160008373ffffffffffffffffffffffffffffffffffffffff1673ffffffffffffffffffffffffffffffffffffffff16815260200190815260200160002060006101000a81548160ff0219169083151502179055506115c86114a2565b73ffffffffffffffffffffffffffffffffffffffff168173ffffffffffffffffffffffffffffffffffffffff16837f2f8788117e7eff1d82e926ec794901d17c78024a50270940304540a733656f0d60405160405180910390a45b5050565b6116318282610fa3565b156117055760006001600084815260200190815260200160002060000160008373ffffffffffffffffffffffffffffffffffffffff1673ffffffffffffffffffffffffffffffffffffffff16815260200190815260200160002060006101000a81548160ff0219169083151502179055506116aa6114a2565b73ffffffffffffffffffffffffffffffffffffffff168173ffffffffffffffffffffffffffffffffffffffff16837ff6391f5c32d9c69d2a47ea670b442974b53935d1edc7fd64eb21e047a839171b60405160405180910390a45b5050565b60606000600283600261171c9190611d30565b61172691906121ed565b67ffffffffffffffff81111561173f5761173e6125f6565b5b6040519080825280601f01601f1916602001820160405280156117715781602001600182028036833780820191505090505b5090507f3000000000000000000000000000000000000000000000000000000000000000816000815181106117a9576117a861242d565b5b60200101907effffffffffffffffffffffffffffffffffffffffffffffffffffffffffffff1916908160001a9053507f78000000000000000000000000000000000000000000000000000000000000008160018151811061180d5761180c61242d565b5b60200101907effffffffffffffffffffffffffffffffffffffffffffffffffffffffffffff1916908160001a9053506000600184600261184d9190611d30565b61185791906121ed565b90505b60018111156118f7577f3031323334353637383961626364656600000000000000000000000000000000600f8616601081106118995761189861242d565b5b1a60f81b8282815181106118b0576118af61242d565b5b60200101907effffffffffffffffffffffffffffffffffffffffffffffffffffffffffffff1916908160001a905350600485901c9450806118f0906127dd565b905061185a565b506000841461193b576040517f08c379a000000000000000000000000000000000000000000000000000000000815260040161193290612853565b60405180910390fd5b8091505092915050565b8280548282559060005260206000209081019282156119be579160200282015b828111156119bd5782518260006101000a81548173ffffffffffffffffffffffffffffffffffffffff021916908373ffffffffffffffffffffffffffffffffffffffff16021790555091602001919060010190611965565b5b5090506119cb91906119cf565b5090565b5b808211156119e85760008160009055506001016119d0565b5090565b600080fd5b60007fffffffff0000000000000000000000000000000000000000000000000000000082169050919050565b611a26816119f1565b8114611a3157600080fd5b50565b600081359050611a4381611a1d565b92915050565b600060208284031215611a5f57611a5e6119ec565b5b6000611a6d84828501611a34565b91505092915050565b60008115159050919050565b611a8b81611a76565b82525050565b6000602082019050611aa66000830184611a82565b92915050565b6000819050919050565b611abf81611aac565b82525050565b6000602082019050611ada6000830184611ab6565b92915050565b6000819050919050565b611af381611ae0565b8114611afe57600080fd5b50565b600081359050611b1081611aea565b92915050565b600060208284031215611b2c57611b2b6119ec565b5b6000611b3a84828501611b01565b91505092915050565b611b4c81611ae0565b82525050565b6000602082019050611b676000830184611b43565b92915050565b600073ffffffffffffffffffffffffffffffffffffffff82169050919050565b6000611b9882611b6d565b9050919050565b611ba881611b8d565b8114611bb357600080fd5b50565b600081359050611bc581611b9f565b92915050565b60008060408385031215611be257611be16119ec565b5b6000611bf085828601611b01565b9250506020611c0185828601611bb6565b9150509250929050565b611c1481611b8d565b82525050565b6000602082019050611c2f6000830184611c0b565b92915050565b611c3e81611aac565b8114611c4957600080fd5b50565b600081359050611c5b81611c35565b92915050565b60008060408385031215611c7857611c776119ec565b5b6000611c8685828601611c4c565b9250506020611c9785828601611c4c565b9150509250929050565b7f4e487b7100000000000000000000000000000000000000000000000000000000600052601260045260246000fd5b7f4e487b7100000000000000000000000000000000000000000000000000000000600052601160045260246000fd5b6000611d0a82611aac565b9150611d1583611aac565b925082611d2557611d24611ca1565b5b828204905092915050565b6000611d3b82611aac565b9150611d4683611aac565b9250817fffffffffffffffffffffffffffffffffffffffffffffffffffffffffffffffff0483118215151615611d7f57611d7e611cd0565b5b828202905092915050565b600082825260208201905092915050565b7f416363657373436f6e74726f6c3a2063616e206f6e6c792072656e6f756e636560008201527f20726f6c657320666f722073656c660000000000000000000000000000000000602082015250565b6000611df7602f83611d8a565b9150611e0282611d9b565b604082019050919050565b60006020820190508181036000830152611e2681611dea565b9050919050565b7f4c6f747465727920506572696f643a205374696c6c20627579696e672074696360008201527f6b65747300000000000000000000000000000000000000000000000000000000602082015250565b6000611e89602483611d8a565b9150611e9482611e2d565b604082019050919050565b60006020820190508181036000830152611eb881611e7c565b9050919050565b7f436c61696d20506572696f643a20496e76616c696420436c61696d205065726960008201527f6f64000000000000000000000000000000000000000000000000000000000000602082015250565b6000611f1b602283611d8a565b9150611f2682611ebf565b604082019050919050565b60006020820190508181036000830152611f4a81611f0e565b9050919050565b7f4572726f723a20596f7520617265206e6f74207468652077696e6e6572000000600082015250565b6000611f87601d83611d8a565b9150611f9282611f51565b602082019050919050565b60006020820190508181036000830152611fb681611f7a565b9050919050565b7f436c61696d3a205072697a6520616c726561647920436c61696d656400000000600082015250565b6000611ff3601c83611d8a565b9150611ffe82611fbd565b602082019050919050565b6000602082019050818103600083015261202281611fe6565b9050919050565b600061203482611aac565b915061203f83611aac565b92508282101561205257612051611cd0565b5b828203905092915050565b7f4d6178205469636b657473207065722075736572206973203130000000000000600082015250565b6000612093601a83611d8a565b915061209e8261205d565b602082019050919050565b600060208201905081810360008301526120c281612086565b9050919050565b7f4c6f747465727920506572696f6420456e6465643a204e6f204d6f726520627560008201527f79696e6720616c6c6f7765640000000000000000000000000000000000000000602082015250565b6000612125602c83611d8a565b9150612130826120c9565b604082019050919050565b6000602082019050818103600083015261215481612118565b9050919050565b7f427579204c6f7474657279205469636b65743a2050726963652073686f756c6460008201527f2062652067726561746572207468616e20312055534400000000000000000000602082015250565b60006121b7603683611d8a565b91506121c28261215b565b604082019050919050565b600060208201905081810360008301526121e6816121aa565b9050919050565b60006121f882611aac565b915061220383611aac565b9250827fffffffffffffffffffffffffffffffffffffffffffffffffffffffffffffffff0382111561223857612237611cd0565b5b828201905092915050565b60006040820190506122586000830185611c0b565b6122656020830184611ab6565b9392505050565b7f416363657373436f6e74726f6c3a204164647265737320646f6573206e6f742060008201527f686176652076616c696420526967687473000000000000000000000000000000602082015250565b60006122c8603183611d8a565b91506122d38261226c565b604082019050919050565b600060208201905081810360008301526122f7816122bb565b9050919050565b7f4c6f747465727920506572696f64204e6f7420456e6465643a204e6f2077696e60008201527f6e65727320796574000000000000000000000000000000000000000000000000602082015250565b600061235a602883611d8a565b9150612365826122fe565b604082019050919050565b600060208201905081810360008301526123898161234d565b9050919050565b7f43616e6e6f7420416e6e6f756e63652077696e6e657220796574000000000000600082015250565b60006123c6601a83611d8a565b91506123d182612390565b602082019050919050565b600060208201905081810360008301526123f5816123b9565b9050919050565b600061240782611aac565b915061241283611aac565b92508261242257612421611ca1565b5b828206905092915050565b7f4e487b7100000000000000000000000000000000000000000000000000000000600052603260045260246000fd5b600069ffffffffffffffffffff82169050919050565b61247b8161245c565b811461248657600080fd5b50565b60008151905061249881612472565b92915050565b6000819050919050565b6124b18161249e565b81146124bc57600080fd5b50565b6000815190506124ce816124a8565b92915050565b6000815190506124e381611c35565b92915050565b600080600080600060a08688031215612505576125046119ec565b5b600061251388828901612489565b9550506020612524888289016124bf565b9450506040612535888289016124d4565b9350506060612546888289016124d4565b925050608061255788828901612489565b9150509295509295909350565b7f43616e6e6f74207265736574204c6f7474657279206265666f7265207072657660008201527f6f69757320436c61696d20706572696f6420656e640000000000000000000000602082015250565b60006125c0603583611d8a565b91506125cb82612564565b604082019050919050565b600060208201905081810360008301526125ef816125b3565b9050919050565b7f4e487b7100000000000000000000000000000000000000000000000000000000600052604160045260246000fd5b600081905092915050565b7f416363657373436f6e74726f6c3a206163636f756e7420000000000000000000600082015250565b6000612666601783612625565b915061267182612630565b601782019050919050565b600081519050919050565b60005b838110156126a557808201518184015260208101905061268a565b838111156126b4576000848401525b50505050565b60006126c58261267c565b6126cf8185612625565b93506126df818560208601612687565b80840191505092915050565b7f206973206d697373696e6720726f6c6520000000000000000000000000000000600082015250565b6000612721601183612625565b915061272c826126eb565b601182019050919050565b600061274282612659565b915061274e82856126ba565b915061275982612714565b915061276582846126ba565b91508190509392505050565b6000601f19601f8301169050919050565b600061278d8261267c565b6127978185611d8a565b93506127a7818560208601612687565b6127b081612771565b840191505092915050565b600060208201905081810360008301526127d58184612782565b905092915050565b60006127e882611aac565b915060008214156127fc576127fb611cd0565b5b600182039050919050565b7f537472696e67733a20686578206c656e67746820696e73756666696369656e74600082015250565b600061283d602083611d8a565b915061284882612807565b602082019050919050565b6000602082019050818103600083015261286c81612830565b905091905056fea26469706673582212201ed5ce7623667e5838901b905f1859c3b9b8798e29c2f51f9d9af8c5e602115f64736f6c634300080b0033",
  "immutableReferences": {},
  "source": "// SPDX-License-Identifier: MIT\n\npragma solidity ^0.8;\n\nimport \"@openzeppelin/contracts/access/AccessControl.sol\";\nimport \"@openzeppelin/contracts/security/Pausable.sol\";\nimport \"@chainlink/contracts/src/v0.8/interfaces/AggregatorV3Interface.sol\";\n\ncontract LuckyMintLotto is Pausable, AccessControl{\n    address internal _safe = 0xd8806d66E24b702e0A56fb972b75D24CAd656821;\n    address public winner;\n    address[] internal Pool;\n    uint internal PoolAmount;\n    bool internal claimed;\n    uint internal playerCount;\n    mapping (address => uint) playerticketcount;\n\n    // uint internal _FEE = 0.0001 * 1e18;\n    uint public winningNumber;\n    uint startDay;\n    uint lotteryPeriod;\n    uint claimperiod;\n\n    bool internal _win;\n\n    AggregatorV3Interface internal priceFeed;\n    IERC721 LottoTickets;\n\n    bytes32 public constant CEO = keccak256(\"CEO\");\n    bytes32 public constant CTO = keccak256(\"CTO\");\n    bytes32 public constant CFO = keccak256(\"CFO\");\n    \n    modifier validate() {\n        require(\n            hasRole(CEO, msg.sender) ||\n                hasRole(CFO, msg.sender) ||\n                hasRole(CTO, msg.sender),\n            \"AccessControl: Address does not have valid Rights\"\n        );\n        _;\n    }\n\n    constructor(address _L){\n        // priceFeed = AggregatorV3Interface(0xd0D5e3DB44DE05E9F294BB0a3bEEaF030DE24Ada); // testnet\n        priceFeed = AggregatorV3Interface(0xAB594600376Ec9fD91F8e885dADF0CE036862dE0); // mainnet\n        LottoTickets = IERC721(_L);\n        _win = false;\n        _grantRole(DEFAULT_ADMIN_ROLE, msg.sender);\n        _grantRole(CEO, msg.sender);\n    }\n    \n    function getPrice() public view returns(uint){\n        (\n            uint80 roundID, \n            int price,\n            uint startedAt,\n            uint timeStamp,\n            uint80 answeredInRound\n        ) = priceFeed.latestRoundData();\n        return uint(price);\n    }\n\n    function getDollar() public view returns(uint256){\n        uint price = getPrice();\n        return (uint(1e14) / price) * 1e12; // a dollar in matic\n    }\n\n    function getPot() public view returns(uint256){\n        return PoolAmount;\n    }\n\n    function getPotUSD() public view returns(uint256){\n        return (getPot()) * getPrice();\n    }\n\n    function getAnnounceDate() public view returns(uint256){\n        return lotteryPeriod;\n    }\n\n    function getTicketCount() public view returns(uint256){\n        return Pool.length;\n    }\n\n    function getPlayerCount() public view returns(uint256){\n        return playerCount;\n    }\n\n    function startLottery(uint _start, uint _duration) public validate {\n        resetLottery();\n        startDay = _start;\n        lotteryPeriod = startDay + _duration * 1 days;\n        claimperiod = lotteryPeriod + 2 days;\n    }\n\n    function resetLottery() public validate {\n        require(block.timestamp > claimperiod, \"Cannot reset Lottery before prevoius Claim period end\");\n        Pool = new address[](0);\n        PoolAmount = 0;\n        winner = address(0);\n        claimed = false;\n    }\n\n    function BuyTicket() public payable{\n        require(playerticketcount[msg.sender] <= 10, \"Max Tickets per user is 10\");\n        require(block.timestamp < lotteryPeriod, \"Lottery Period Ended: No More buying allowed\");\n        uint onedollar = getDollar();\n        require(msg.value >= onedollar, \"Buy Lottery Ticket: Price should be greater than 1 USD\");\n        Pool.push(msg.sender); // Pool1 is the 1 USD pool\n        LottoTickets.safeMint(msg.sender, (Pool.length * 10) + 1);\n        if(playerticketcount[msg.sender] == 0) playerCount += 1;\n        playerticketcount[msg.sender] += 1;\n        PoolAmount +=  msg.value - gasleft();\n    }\n\n    function AnnounceLotteryWinner() public validate returns(address){\n        require(block.timestamp > lotteryPeriod, \"Lottery Period Not Ended: No winners yet\");\n        require(_win == false, \"Cannot Announce winner yet\");\n        uint winningOne = uint(blockhash(block.number - 1)) % Pool.length;\n        winner = Pool[winningOne];\n        _win = true;\n        return winner;\n    }\n\n    function claim() public {\n        require(_win == true);\n        require(block.timestamp > lotteryPeriod, \"Lottery Period: Still buying tickets\");\n        require(block.timestamp < claimperiod, \"Claim Period: Invalid Claim Period\");\n        require((msg.sender == winner) , \"Error: You are not the winner\");\n        \n        uint poolpot = PoolAmount;\n        require(claimed == false, \"Claim: Prize already Claimed\");\n\n        uint cut = poolpot * 5 / 100;\n        uint pot = poolpot - cut;\n\n        payable(_safe).transfer(cut);\n        payable(winner).transfer(pot);\n\n        claimed = true;\n    }\n}\n\ninterface IERC721 {\n    event Transfer(address indexed _from, address indexed _to, uint256 indexed _tokenId);\n    event Approval(address indexed _owner, address indexed _approved, uint256 indexed _tokenId);\n    event ApprovalForAll(address indexed _owner, address indexed _operator, bool _approved);\n    \n    function balanceOf(address _owner) external view returns (uint256);\n    function ownerOf(uint256 _tokenId) external view returns (address);\n    function safeMint(address to, uint256 tokenId) external;\n    function safeBurn(address to, uint256 tokenId) external;\n    function safeTransferFrom(address _from, address _to, uint256 _tokenId) external payable;\n    function safeTransfer(address _to, uint256 _tokenId) external payable;\n    function transferFrom(address _from, address _to, uint256 _tokenId) external payable;\n    function approve(address _approved, uint256 _tokenId) external payable;\n    function setApprovalForAll(address _operator, bool _approved) external;\n    function getApproved(uint256 _tokenId) external view returns (address);\n    function isApprovedForAll(address _owner, address _operator) external view returns (bool);\n}",
  "sourcePath": "/home/pranav/avalor/maticLottery/contracts/LuckyMintLotto.sol",
  "compiler": {
    "name": "solc",
    "version": "0.8.11+commit.d7f03943.Emscripten.clang"
  },
  "schemaVersion": "3.4.4",
  "updatedAt": "2022-02-18T17:10:28.772Z",
  "devdoc": {
    "kind": "dev",
    "methods": {
      "getRoleAdmin(bytes32)": {
        "details": "Returns the admin role that controls `role`. See {grantRole} and {revokeRole}. To change a role's admin, use {_setRoleAdmin}."
      },
      "grantRole(bytes32,address)": {
        "details": "Grants `role` to `account`. If `account` had not been already granted `role`, emits a {RoleGranted} event. Requirements: - the caller must have ``role``'s admin role."
      },
      "hasRole(bytes32,address)": {
        "details": "Returns `true` if `account` has been granted `role`."
      },
      "paused()": {
        "details": "Returns true if the contract is paused, and false otherwise."
      },
      "renounceRole(bytes32,address)": {
        "details": "Revokes `role` from the calling account. Roles are often managed via {grantRole} and {revokeRole}: this function's purpose is to provide a mechanism for accounts to lose their privileges if they are compromised (such as when a trusted device is misplaced). If the calling account had been revoked `role`, emits a {RoleRevoked} event. Requirements: - the caller must be `account`."
      },
      "revokeRole(bytes32,address)": {
        "details": "Revokes `role` from `account`. If `account` had been granted `role`, emits a {RoleRevoked} event. Requirements: - the caller must have ``role``'s admin role."
      },
      "supportsInterface(bytes4)": {
        "details": "See {IERC165-supportsInterface}."
      }
    },
    "version": 1
  },
  "userdoc": {
    "kind": "user",
    "methods": {},
    "version": 1
  }
}