{
  "contractName": "LuckyMintNFT",
  "abi": [
    {
      "inputs": [],
      "stateMutability": "nonpayable",
      "type": "constructor"
    },
    {
      "anonymous": false,
      "inputs": [
        {
          "indexed": true,
          "internalType": "address",
          "name": "owner",
          "type": "address"
        },
        {
          "indexed": true,
          "internalType": "address",
          "name": "approved",
          "type": "address"
        },
        {
          "indexed": true,
          "internalType": "uint256",
          "name": "tokenId",
          "type": "uint256"
        }
      ],
      "name": "Approval",
      "type": "event"
    },
    {
      "anonymous": false,
      "inputs": [
        {
          "indexed": true,
          "internalType": "address",
          "name": "owner",
          "type": "address"
        },
        {
          "indexed": true,
          "internalType": "address",
          "name": "operator",
          "type": "address"
        },
        {
          "indexed": false,
          "internalType": "bool",
          "name": "approved",
          "type": "bool"
        }
      ],
      "name": "ApprovalForAll",
      "type": "event"
    },
    {
      "anonymous": false,
      "inputs": [
        {
          "indexed": false,
          "internalType": "address",
          "name": "account",
          "type": "address"
        }
      ],
      "name": "Paused",
      "type": "event"
    },
    {
      "anonymous": false,
      "inputs": [
        {
          "indexed": true,
          "internalType": "bytes32",
          "name": "role",
          "type": "bytes32"
        },
        {
          "indexed": true,
          "internalType": "bytes32",
          "name": "previousAdminRole",
          "type": "bytes32"
        },
        {
          "indexed": true,
          "internalType": "bytes32",
          "name": "newAdminRole",
          "type": "bytes32"
        }
      ],
      "name": "RoleAdminChanged",
      "type": "event"
    },
    {
      "anonymous": false,
      "inputs": [
        {
          "indexed": true,
          "internalType": "bytes32",
          "name": "role",
          "type": "bytes32"
        },
        {
          "indexed": true,
          "internalType": "address",
          "name": "account",
          "type": "address"
        },
        {
          "indexed": true,
          "internalType": "address",
          "name": "sender",
          "type": "address"
        }
      ],
      "name": "RoleGranted",
      "type": "event"
    },
    {
      "anonymous": false,
      "inputs": [
        {
          "indexed": true,
          "internalType": "bytes32",
          "name": "role",
          "type": "bytes32"
        },
        {
          "indexed": true,
          "internalType": "address",
          "name": "account",
          "type": "address"
        },
        {
          "indexed": true,
          "internalType": "address",
          "name": "sender",
          "type": "address"
        }
      ],
      "name": "RoleRevoked",
      "type": "event"
    },
    {
      "anonymous": false,
      "inputs": [
        {
          "indexed": true,
          "internalType": "address",
          "name": "from",
          "type": "address"
        },
        {
          "indexed": true,
          "internalType": "address",
          "name": "to",
          "type": "address"
        },
        {
          "indexed": true,
          "internalType": "uint256",
          "name": "tokenId",
          "type": "uint256"
        }
      ],
      "name": "Transfer",
      "type": "event"
    },
    {
      "anonymous": false,
      "inputs": [
        {
          "indexed": false,
          "internalType": "address",
          "name": "account",
          "type": "address"
        }
      ],
      "name": "Unpaused",
      "type": "event"
    },
    {
      "inputs": [],
      "name": "CEO",
      "outputs": [
        {
          "internalType": "bytes32",
          "name": "",
          "type": "bytes32"
        }
      ],
      "stateMutability": "view",
      "type": "function"
    },
    {
      "inputs": [],
      "name": "CFO",
      "outputs": [
        {
          "internalType": "bytes32",
          "name": "",
          "type": "bytes32"
        }
      ],
      "stateMutability": "view",
      "type": "function"
    },
    {
      "inputs": [],
      "name": "CTO",
      "outputs": [
        {
          "internalType": "bytes32",
          "name": "",
          "type": "bytes32"
        }
      ],
      "stateMutability": "view",
      "type": "function"
    },
    {
      "inputs": [],
      "name": "DEFAULT_ADMIN_ROLE",
      "outputs": [
        {
          "internalType": "bytes32",
          "name": "",
          "type": "bytes32"
        }
      ],
      "stateMutability": "view",
      "type": "function"
    },
    {
      "inputs": [
        {
          "internalType": "address",
          "name": "to",
          "type": "address"
        },
        {
          "internalType": "uint256",
          "name": "tokenId",
          "type": "uint256"
        }
      ],
      "name": "approve",
      "outputs": [],
      "stateMutability": "nonpayable",
      "type": "function"
    },
    {
      "inputs": [
        {
          "internalType": "address",
          "name": "owner",
          "type": "address"
        }
      ],
      "name": "balanceOf",
      "outputs": [
        {
          "internalType": "uint256",
          "name": "",
          "type": "uint256"
        }
      ],
      "stateMutability": "view",
      "type": "function"
    },
    {
      "inputs": [
        {
          "internalType": "uint256",
          "name": "tokenId",
          "type": "uint256"
        }
      ],
      "name": "burn",
      "outputs": [],
      "stateMutability": "nonpayable",
      "type": "function"
    },
    {
      "inputs": [
        {
          "internalType": "uint256",
          "name": "tokenId",
          "type": "uint256"
        }
      ],
      "name": "getApproved",
      "outputs": [
        {
          "internalType": "address",
          "name": "",
          "type": "address"
        }
      ],
      "stateMutability": "view",
      "type": "function"
    },
    {
      "inputs": [
        {
          "internalType": "bytes32",
          "name": "role",
          "type": "bytes32"
        }
      ],
      "name": "getRoleAdmin",
      "outputs": [
        {
          "internalType": "bytes32",
          "name": "",
          "type": "bytes32"
        }
      ],
      "stateMutability": "view",
      "type": "function"
    },
    {
      "inputs": [
        {
          "internalType": "bytes32",
          "name": "role",
          "type": "bytes32"
        },
        {
          "internalType": "address",
          "name": "account",
          "type": "address"
        }
      ],
      "name": "grantRole",
      "outputs": [],
      "stateMutability": "nonpayable",
      "type": "function"
    },
    {
      "inputs": [
        {
          "internalType": "bytes32",
          "name": "role",
          "type": "bytes32"
        },
        {
          "internalType": "address",
          "name": "account",
          "type": "address"
        }
      ],
      "name": "hasRole",
      "outputs": [
        {
          "internalType": "bool",
          "name": "",
          "type": "bool"
        }
      ],
      "stateMutability": "view",
      "type": "function"
    },
    {
      "inputs": [
        {
          "internalType": "address",
          "name": "owner",
          "type": "address"
        },
        {
          "internalType": "address",
          "name": "operator",
          "type": "address"
        }
      ],
      "name": "isApprovedForAll",
      "outputs": [
        {
          "internalType": "bool",
          "name": "",
          "type": "bool"
        }
      ],
      "stateMutability": "view",
      "type": "function"
    },
    {
      "inputs": [],
      "name": "name",
      "outputs": [
        {
          "internalType": "string",
          "name": "",
          "type": "string"
        }
      ],
      "stateMutability": "view",
      "type": "function"
    },
    {
      "inputs": [
        {
          "internalType": "uint256",
          "name": "tokenId",
          "type": "uint256"
        }
      ],
      "name": "ownerOf",
      "outputs": [
        {
          "internalType": "address",
          "name": "",
          "type": "address"
        }
      ],
      "stateMutability": "view",
      "type": "function"
    },
    {
      "inputs": [],
      "name": "paused",
      "outputs": [
        {
          "internalType": "bool",
          "name": "",
          "type": "bool"
        }
      ],
      "stateMutability": "view",
      "type": "function"
    },
    {
      "inputs": [
        {
          "internalType": "bytes32",
          "name": "role",
          "type": "bytes32"
        },
        {
          "internalType": "address",
          "name": "account",
          "type": "address"
        }
      ],
      "name": "renounceRole",
      "outputs": [],
      "stateMutability": "nonpayable",
      "type": "function"
    },
    {
      "inputs": [
        {
          "internalType": "bytes32",
          "name": "role",
          "type": "bytes32"
        },
        {
          "internalType": "address",
          "name": "account",
          "type": "address"
        }
      ],
      "name": "revokeRole",
      "outputs": [],
      "stateMutability": "nonpayable",
      "type": "function"
    },
    {
      "inputs": [
        {
          "internalType": "address",
          "name": "from",
          "type": "address"
        },
        {
          "internalType": "address",
          "name": "to",
          "type": "address"
        },
        {
          "internalType": "uint256",
          "name": "tokenId",
          "type": "uint256"
        }
      ],
      "name": "safeTransferFrom",
      "outputs": [],
      "stateMutability": "nonpayable",
      "type": "function"
    },
    {
      "inputs": [
        {
          "internalType": "address",
          "name": "from",
          "type": "address"
        },
        {
          "internalType": "address",
          "name": "to",
          "type": "address"
        },
        {
          "internalType": "uint256",
          "name": "tokenId",
          "type": "uint256"
        },
        {
          "internalType": "bytes",
          "name": "_data",
          "type": "bytes"
        }
      ],
      "name": "safeTransferFrom",
      "outputs": [],
      "stateMutability": "nonpayable",
      "type": "function"
    },
    {
      "inputs": [
        {
          "internalType": "address",
          "name": "operator",
          "type": "address"
        },
        {
          "internalType": "bool",
          "name": "approved",
          "type": "bool"
        }
      ],
      "name": "setApprovalForAll",
      "outputs": [],
      "stateMutability": "nonpayable",
      "type": "function"
    },
    {
      "inputs": [],
      "name": "symbol",
      "outputs": [
        {
          "internalType": "string",
          "name": "",
          "type": "string"
        }
      ],
      "stateMutability": "view",
      "type": "function"
    },
    {
      "inputs": [
        {
          "internalType": "uint256",
          "name": "tokenId",
          "type": "uint256"
        }
      ],
      "name": "tokenURI",
      "outputs": [
        {
          "internalType": "string",
          "name": "",
          "type": "string"
        }
      ],
      "stateMutability": "view",
      "type": "function"
    },
    {
      "inputs": [
        {
          "internalType": "address",
          "name": "from",
          "type": "address"
        },
        {
          "internalType": "address",
          "name": "to",
          "type": "address"
        },
        {
          "internalType": "uint256",
          "name": "tokenId",
          "type": "uint256"
        }
      ],
      "name": "transferFrom",
      "outputs": [],
      "stateMutability": "nonpayable",
      "type": "function"
    },
    {
      "inputs": [],
      "name": "pause",
      "outputs": [],
      "stateMutability": "nonpayable",
      "type": "function"
    },
    {
      "inputs": [],
      "name": "unpause",
      "outputs": [],
      "stateMutability": "nonpayable",
      "type": "function"
    },
    {
      "inputs": [
        {
          "internalType": "address",
          "name": "to",
          "type": "address"
        },
        {
          "internalType": "uint256",
          "name": "tokenId",
          "type": "uint256"
        }
      ],
      "name": "safeMint",
      "outputs": [],
      "stateMutability": "nonpayable",
      "type": "function"
    },
    {
      "inputs": [
        {
          "internalType": "bytes4",
          "name": "interfaceId",
          "type": "bytes4"
        }
      ],
      "name": "supportsInterface",
      "outputs": [
        {
          "internalType": "bool",
          "name": "",
          "type": "bool"
        }
      ],
      "stateMutability": "view",
      "type": "function"
    }
  ],
  "bytecode": "0x60806040523480156200001157600080fd5b506040518060400160405280600e81526020017f4c75636b79204d696e74204e46540000000000000000000000000000000000008152506040518060400160405280600581526020017f4c4d4e46540000000000000000000000000000000000000000000000000000008152508160009080519060200190620000969291906200027f565b508060019080519060200190620000af9291906200027f565b5050506000600660006101000a81548160ff021916908315150217905550620000e26000801b336200011a60201b60201c565b620001147fdc0d7a095c4e917ecbeb7deda7c942ff9744013d419e37549215a413915e421d336200011a60201b60201c565b62000394565b6200012c82826200020c60201b60201c565b620002085760016007600084815260200190815260200160002060000160008373ffffffffffffffffffffffffffffffffffffffff1673ffffffffffffffffffffffffffffffffffffffff16815260200190815260200160002060006101000a81548160ff021916908315150217905550620001ad6200027760201b60201c565b73ffffffffffffffffffffffffffffffffffffffff168173ffffffffffffffffffffffffffffffffffffffff16837f2f8788117e7eff1d82e926ec794901d17c78024a50270940304540a733656f0d60405160405180910390a45b5050565b60006007600084815260200190815260200160002060000160008373ffffffffffffffffffffffffffffffffffffffff1673ffffffffffffffffffffffffffffffffffffffff16815260200190815260200160002060009054906101000a900460ff16905092915050565b600033905090565b8280546200028d906200035e565b90600052602060002090601f016020900481019282620002b15760008555620002fd565b82601f10620002cc57805160ff1916838001178555620002fd565b82800160010185558215620002fd579182015b82811115620002fc578251825591602001919060010190620002df565b5b5090506200030c919062000310565b5090565b5b808211156200032b57600081600090555060010162000311565b5090565b7f4e487b7100000000000000000000000000000000000000000000000000000000600052602260045260246000fd5b600060028204905060018216806200037757607f821691505b602082108114156200038e576200038d6200032f565b5b50919050565b613b5a80620003a46000396000f3fe608060405234801561001057600080fd5b50600436106101a95760003560e01c80635c975abb116100f9578063a144819411610097578063b88d4fde11610071578063b88d4fde14610494578063c87b56dd146104b0578063d547741f146104e0578063e985e9c5146104fc576101a9565b8063a14481941461043e578063a217fddf1461045a578063a22cb46514610478576101a9565b80638456cb59116100d35780638456cb59146103c857806391d14854146103d257806395d89b4114610402578063a108857114610420576101a9565b80635c975abb1461034a5780636352211e1461036857806370a0823114610398576101a9565b80632f2ff15d116101665780633d01bdec116101405780633d01bdec146102ea5780633f4ba83a1461030857806342842e0e1461031257806342966c681461032e576101a9565b80632f2ff15d1461029457806330d500bf146102b057806336568abe146102ce576101a9565b806301ffc9a7146101ae57806306fdde03146101de578063081812fc146101fc578063095ea7b31461022c57806323b872dd14610248578063248a9ca314610264575b600080fd5b6101c860048036038101906101c391906125c0565b61052c565b6040516101d59190612608565b60405180910390f35b6101e661053e565b6040516101f391906126bc565b60405180910390f35b61021660048036038101906102119190612714565b6105d0565b6040516102239190612782565b60405180910390f35b610246600480360381019061024191906127c9565b610655565b005b610262600480360381019061025d9190612809565b61076d565b005b61027e60048036038101906102799190612892565b6107cd565b60405161028b91906128ce565b60405180910390f35b6102ae60048036038101906102a991906128e9565b6107ed565b005b6102b8610816565b6040516102c591906128ce565b60405180910390f35b6102e860048036038101906102e391906128e9565b61083a565b005b6102f26108bd565b6040516102ff91906128ce565b60405180910390f35b6103106108e1565b005b61032c60048036038101906103279190612809565b6109b6565b005b61034860048036038101906103439190612714565b6109d6565b005b610352610a32565b60405161035f9190612608565b60405180910390f35b610382600480360381019061037d9190612714565b610a49565b60405161038f9190612782565b60405180910390f35b6103b260048036038101906103ad9190612929565b610afb565b6040516103bf9190612965565b60405180910390f35b6103d0610bb3565b005b6103ec60048036038101906103e791906128e9565b610c88565b6040516103f99190612608565b60405180910390f35b61040a610cf3565b60405161041791906126bc565b60405180910390f35b610428610d85565b60405161043591906128ce565b60405180910390f35b610458600480360381019061045391906127c9565b610da9565b005b610462610e9a565b60405161046f91906128ce565b60405180910390f35b610492600480360381019061048d91906129ac565b610ea1565b005b6104ae60048036038101906104a99190612b21565b610eb7565b005b6104ca60048036038101906104c59190612714565b610f19565b6040516104d791906126bc565b60405180910390f35b6104fa60048036038101906104f591906128e9565b610fc0565b005b61051660048036038101906105119190612ba4565b610fe9565b6040516105239190612608565b60405180910390f35b60006105378261107d565b9050919050565b60606000805461054d90612c13565b80601f016020809104026020016040519081016040528092919081815260200182805461057990612c13565b80156105c65780601f1061059b576101008083540402835291602001916105c6565b820191906000526020600020905b8154815290600101906020018083116105a957829003601f168201915b5050505050905090565b60006105db826110f7565b61061a576040517f08c379a000000000000000000000000000000000000000000000000000000000815260040161061190612cb7565b60405180910390fd5b6004600083815260200190815260200160002060009054906101000a900473ffffffffffffffffffffffffffffffffffffffff169050919050565b600061066082610a49565b90508073ffffffffffffffffffffffffffffffffffffffff168373ffffffffffffffffffffffffffffffffffffffff1614156106d1576040517f08c379a00000000000000000000000000000000000000000000000000000000081526004016106c890612d49565b60405180910390fd5b8073ffffffffffffffffffffffffffffffffffffffff166106f0611163565b73ffffffffffffffffffffffffffffffffffffffff16148061071f575061071e81610719611163565b610fe9565b5b61075e576040517f08c379a000000000000000000000000000000000000000000000000000000000815260040161075590612ddb565b60405180910390fd5b610768838361116b565b505050565b61077e610778611163565b82611224565b6107bd576040517f08c379a00000000000000000000000000000000000000000000000000000000081526004016107b490612e6d565b60405180910390fd5b6107c8838383611302565b505050565b600060076000838152602001908152602001600020600101549050919050565b6107f6826107cd565b61080781610802611163565b611569565b6108118383611606565b505050565b7f33fa24d9aab6b79237248a16094d5f78ea83bb51e42c123ce925a264e7d816cc81565b610842611163565b73ffffffffffffffffffffffffffffffffffffffff168173ffffffffffffffffffffffffffffffffffffffff16146108af576040517f08c379a00000000000000000000000000000000000000000000000000000000081526004016108a690612eff565b60405180910390fd5b6108b982826116e7565b5050565b7ff5562c8b4b9dcf5083521725556cccf96ad230969b26cc8a145f067d5ab9ac8381565b61090b7fdc0d7a095c4e917ecbeb7deda7c942ff9744013d419e37549215a413915e421d33610c88565b8061093c575061093b7f33fa24d9aab6b79237248a16094d5f78ea83bb51e42c123ce925a264e7d816cc33610c88565b5b8061096d575061096c7ff5562c8b4b9dcf5083521725556cccf96ad230969b26cc8a145f067d5ab9ac8333610c88565b5b6109ac576040517f08c379a00000000000000000000000000000000000000000000000000000000081526004016109a390612f91565b60405180910390fd5b6109b46117c9565b565b6109d183838360405180602001604052806000815250610eb7565b505050565b6109e76109e1611163565b82611224565b610a26576040517f08c379a0000000000000000000000000000000000000000000000000000000008152600401610a1d90613023565b60405180910390fd5b610a2f8161186b565b50565b6000600660009054906101000a900460ff16905090565b6000806002600084815260200190815260200160002060009054906101000a900473ffffffffffffffffffffffffffffffffffffffff169050600073ffffffffffffffffffffffffffffffffffffffff168173ffffffffffffffffffffffffffffffffffffffff161415610af2576040517f08c379a0000000000000000000000000000000000000000000000000000000008152600401610ae9906130b5565b60405180910390fd5b80915050919050565b60008073ffffffffffffffffffffffffffffffffffffffff168273ffffffffffffffffffffffffffffffffffffffff161415610b6c576040517f08c379a0000000000000000000000000000000000000000000000000000000008152600401610b6390613147565b60405180910390fd5b600360008373ffffffffffffffffffffffffffffffffffffffff1673ffffffffffffffffffffffffffffffffffffffff168152602001908152602001600020549050919050565b610bdd7fdc0d7a095c4e917ecbeb7deda7c942ff9744013d419e37549215a413915e421d33610c88565b80610c0e5750610c0d7f33fa24d9aab6b79237248a16094d5f78ea83bb51e42c123ce925a264e7d816cc33610c88565b5b80610c3f5750610c3e7ff5562c8b4b9dcf5083521725556cccf96ad230969b26cc8a145f067d5ab9ac8333610c88565b5b610c7e576040517f08c379a0000000000000000000000000000000000000000000000000000000008152600401610c7590612f91565b60405180910390fd5b610c86611988565b565b60006007600084815260200190815260200160002060000160008373ffffffffffffffffffffffffffffffffffffffff1673ffffffffffffffffffffffffffffffffffffffff16815260200190815260200160002060009054906101000a900460ff16905092915050565b606060018054610d0290612c13565b80601f0160208091040260200160405190810160405280929190818152602001828054610d2e90612c13565b8015610d7b5780601f10610d5057610100808354040283529160200191610d7b565b820191906000526020600020905b815481529060010190602001808311610d5e57829003601f168201915b5050505050905090565b7fdc0d7a095c4e917ecbeb7deda7c942ff9744013d419e37549215a413915e421d81565b610dd37fdc0d7a095c4e917ecbeb7deda7c942ff9744013d419e37549215a413915e421d33610c88565b80610e045750610e037f33fa24d9aab6b79237248a16094d5f78ea83bb51e42c123ce925a264e7d816cc33610c88565b5b80610e355750610e347ff5562c8b4b9dcf5083521725556cccf96ad230969b26cc8a145f067d5ab9ac8333610c88565b5b610e74576040517f08c379a0000000000000000000000000000000000000000000000000000000008152600401610e6b90612f91565b60405180910390fd5b610e7d816110f7565b15610e8c57610e8b8161186b565b5b610e968282611a2b565b5050565b6000801b81565b610eb3610eac611163565b8383611a49565b5050565b610ec8610ec2611163565b83611224565b610f07576040517f08c379a0000000000000000000000000000000000000000000000000000000008152600401610efe90612e6d565b60405180910390fd5b610f1384848484611bb6565b50505050565b6060610f24826110f7565b610f63576040517f08c379a0000000000000000000000000000000000000000000000000000000008152600401610f5a906131d9565b60405180910390fd5b6000610f6d611c12565b90506000815111610f8d5760405180602001604052806000815250610fb8565b80610f9784611c29565b604051602001610fa8929190613235565b6040516020818303038152906040525b915050919050565b610fc9826107cd565b610fda81610fd5611163565b611569565b610fe483836116e7565b505050565b6000600560008473ffffffffffffffffffffffffffffffffffffffff1673ffffffffffffffffffffffffffffffffffffffff16815260200190815260200160002060008373ffffffffffffffffffffffffffffffffffffffff1673ffffffffffffffffffffffffffffffffffffffff16815260200190815260200160002060009054906101000a900460ff16905092915050565b60007f7965db0b000000000000000000000000000000000000000000000000000000007bffffffffffffffffffffffffffffffffffffffffffffffffffffffff1916827bffffffffffffffffffffffffffffffffffffffffffffffffffffffff191614806110f057506110ef82611d8a565b5b9050919050565b60008073ffffffffffffffffffffffffffffffffffffffff166002600084815260200190815260200160002060009054906101000a900473ffffffffffffffffffffffffffffffffffffffff1673ffffffffffffffffffffffffffffffffffffffff1614159050919050565b600033905090565b816004600083815260200190815260200160002060006101000a81548173ffffffffffffffffffffffffffffffffffffffff021916908373ffffffffffffffffffffffffffffffffffffffff160217905550808273ffffffffffffffffffffffffffffffffffffffff166111de83610a49565b73ffffffffffffffffffffffffffffffffffffffff167f8c5be1e5ebec7d5bd14f71427d1e84f3dd0314c0f7b2291e5b200ac8c7c3b92560405160405180910390a45050565b600061122f826110f7565b61126e576040517f08c379a0000000000000000000000000000000000000000000000000000000008152600401611265906132cb565b60405180910390fd5b600061127983610a49565b90508073ffffffffffffffffffffffffffffffffffffffff168473ffffffffffffffffffffffffffffffffffffffff1614806112e857508373ffffffffffffffffffffffffffffffffffffffff166112d0846105d0565b73ffffffffffffffffffffffffffffffffffffffff16145b806112f957506112f88185610fe9565b5b91505092915050565b8273ffffffffffffffffffffffffffffffffffffffff1661132282610a49565b73ffffffffffffffffffffffffffffffffffffffff1614611378576040517f08c379a000000000000000000000000000000000000000000000000000000000815260040161136f9061335d565b60405180910390fd5b600073ffffffffffffffffffffffffffffffffffffffff168273ffffffffffffffffffffffffffffffffffffffff1614156113e8576040517f08c379a00000000000000000000000000000000000000000000000000000000081526004016113df906133ef565b60405180910390fd5b6113f3838383611e6c565b6113fe60008261116b565b6001600360008573ffffffffffffffffffffffffffffffffffffffff1673ffffffffffffffffffffffffffffffffffffffff168152602001908152602001600020600082825461144e919061343e565b925050819055506001600360008473ffffffffffffffffffffffffffffffffffffffff1673ffffffffffffffffffffffffffffffffffffffff16815260200190815260200160002060008282546114a59190613472565b92505081905550816002600083815260200190815260200160002060006101000a81548173ffffffffffffffffffffffffffffffffffffffff021916908373ffffffffffffffffffffffffffffffffffffffff160217905550808273ffffffffffffffffffffffffffffffffffffffff168473ffffffffffffffffffffffffffffffffffffffff167fddf252ad1be2c89b69c2b068fc378daa952ba7f163c4a11628f55a4df523b3ef60405160405180910390a4611564838383611ec4565b505050565b6115738282610c88565b611602576115988173ffffffffffffffffffffffffffffffffffffffff166014611ec9565b6115a68360001c6020611ec9565b6040516020016115b7929190613560565b6040516020818303038152906040526040517f08c379a00000000000000000000000000000000000000000000000000000000081526004016115f991906126bc565b60405180910390fd5b5050565b6116108282610c88565b6116e35760016007600084815260200190815260200160002060000160008373ffffffffffffffffffffffffffffffffffffffff1673ffffffffffffffffffffffffffffffffffffffff16815260200190815260200160002060006101000a81548160ff021916908315150217905550611688611163565b73ffffffffffffffffffffffffffffffffffffffff168173ffffffffffffffffffffffffffffffffffffffff16837f2f8788117e7eff1d82e926ec794901d17c78024a50270940304540a733656f0d60405160405180910390a45b5050565b6116f18282610c88565b156117c55760006007600084815260200190815260200160002060000160008373ffffffffffffffffffffffffffffffffffffffff1673ffffffffffffffffffffffffffffffffffffffff16815260200190815260200160002060006101000a81548160ff02191690831515021790555061176a611163565b73ffffffffffffffffffffffffffffffffffffffff168173ffffffffffffffffffffffffffffffffffffffff16837ff6391f5c32d9c69d2a47ea670b442974b53935d1edc7fd64eb21e047a839171b60405160405180910390a45b5050565b6117d1610a32565b611810576040517f08c379a0000000000000000000000000000000000000000000000000000000008152600401611807906135e6565b60405180910390fd5b6000600660006101000a81548160ff0219169083151502179055507f5db9ee0a495bf2e6ff9c91a7834c1ba4fdd244a5e8aa4e537bd38aeae4b073aa611854611163565b6040516118619190612782565b60405180910390a1565b600061187682610a49565b905061188481600084611e6c565b61188f60008361116b565b6001600360008373ffffffffffffffffffffffffffffffffffffffff1673ffffffffffffffffffffffffffffffffffffffff16815260200190815260200160002060008282546118df919061343e565b925050819055506002600083815260200190815260200160002060006101000a81549073ffffffffffffffffffffffffffffffffffffffff021916905581600073ffffffffffffffffffffffffffffffffffffffff168273ffffffffffffffffffffffffffffffffffffffff167fddf252ad1be2c89b69c2b068fc378daa952ba7f163c4a11628f55a4df523b3ef60405160405180910390a461198481600084611ec4565b5050565b611990610a32565b156119d0576040517f08c379a00000000000000000000000000000000000000000000000000000000081526004016119c790613652565b60405180910390fd5b6001600660006101000a81548160ff0219169083151502179055507f62e78cea01bee320cd4e420270b5ea74000d11b0c9f74754ebdbfc544b05a258611a14611163565b604051611a219190612782565b60405180910390a1565b611a45828260405180602001604052806000815250612105565b5050565b8173ffffffffffffffffffffffffffffffffffffffff168373ffffffffffffffffffffffffffffffffffffffff161415611ab8576040517f08c379a0000000000000000000000000000000000000000000000000000000008152600401611aaf906136be565b60405180910390fd5b80600560008573ffffffffffffffffffffffffffffffffffffffff1673ffffffffffffffffffffffffffffffffffffffff16815260200190815260200160002060008473ffffffffffffffffffffffffffffffffffffffff1673ffffffffffffffffffffffffffffffffffffffff16815260200190815260200160002060006101000a81548160ff0219169083151502179055508173ffffffffffffffffffffffffffffffffffffffff168373ffffffffffffffffffffffffffffffffffffffff167f17307eab39ab6107e8899845ad3d59bd9653f200f220920489ca2b5937696c3183604051611ba99190612608565b60405180910390a3505050565b611bc1848484611302565b611bcd84848484612160565b611c0c576040517f08c379a0000000000000000000000000000000000000000000000000000000008152600401611c0390613750565b60405180910390fd5b50505050565b606060405180602001604052806000815250905090565b60606000821415611c71576040518060400160405280600181526020017f30000000000000000000000000000000000000000000000000000000000000008152509050611d85565b600082905060005b60008214611ca3578080611c8c90613770565b915050600a82611c9c91906137e8565b9150611c79565b60008167ffffffffffffffff811115611cbf57611cbe6129f6565b5b6040519080825280601f01601f191660200182016040528015611cf15781602001600182028036833780820191505090505b5090505b60008514611d7e57600182611d0a919061343e565b9150600a85611d199190613819565b6030611d259190613472565b60f81b818381518110611d3b57611d3a61384a565b5b60200101907effffffffffffffffffffffffffffffffffffffffffffffffffffffffffffff1916908160001a905350600a85611d7791906137e8565b9450611cf5565b8093505050505b919050565b60007f80ac58cd000000000000000000000000000000000000000000000000000000007bffffffffffffffffffffffffffffffffffffffffffffffffffffffff1916827bffffffffffffffffffffffffffffffffffffffffffffffffffffffff19161480611e5557507f5b5e139f000000000000000000000000000000000000000000000000000000007bffffffffffffffffffffffffffffffffffffffffffffffffffffffff1916827bffffffffffffffffffffffffffffffffffffffffffffffffffffffff1916145b80611e655750611e64826122e8565b5b9050919050565b611e74610a32565b15611eb4576040517f08c379a0000000000000000000000000000000000000000000000000000000008152600401611eab90613652565b60405180910390fd5b611ebf838383612352565b505050565b505050565b606060006002836002611edc9190613879565b611ee69190613472565b67ffffffffffffffff811115611eff57611efe6129f6565b5b6040519080825280601f01601f191660200182016040528015611f315781602001600182028036833780820191505090505b5090507f300000000000000000000000000000000000000000000000000000000000000081600081518110611f6957611f6861384a565b5b60200101907effffffffffffffffffffffffffffffffffffffffffffffffffffffffffffff1916908160001a9053507f780000000000000000000000000000000000000000000000000000000000000081600181518110611fcd57611fcc61384a565b5b60200101907effffffffffffffffffffffffffffffffffffffffffffffffffffffffffffff1916908160001a9053506000600184600261200d9190613879565b6120179190613472565b90505b60018111156120b7577f3031323334353637383961626364656600000000000000000000000000000000600f8616601081106120595761205861384a565b5b1a60f81b8282815181106120705761206f61384a565b5b60200101907effffffffffffffffffffffffffffffffffffffffffffffffffffffffffffff1916908160001a905350600485901c9450806120b0906138d3565b905061201a565b50600084146120fb576040517f08c379a00000000000000000000000000000000000000000000000000000000081526004016120f290613949565b60405180910390fd5b8091505092915050565b61210f8383612357565b61211c6000848484612160565b61215b576040517f08c379a000000000000000000000000000000000000000000000000000000000815260040161215290613750565b60405180910390fd5b505050565b60006121818473ffffffffffffffffffffffffffffffffffffffff16612531565b156122db578373ffffffffffffffffffffffffffffffffffffffff1663150b7a026121aa611163565b8786866040518563ffffffff1660e01b81526004016121cc94939291906139be565b6020604051808303816000875af192505050801561220857506040513d601f19601f820116820180604052508101906122059190613a1f565b60015b61228b573d8060008114612238576040519150601f19603f3d011682016040523d82523d6000602084013e61223d565b606091505b50600081511415612283576040517f08c379a000000000000000000000000000000000000000000000000000000000815260040161227a90613750565b60405180910390fd5b805181602001fd5b63150b7a0260e01b7bffffffffffffffffffffffffffffffffffffffffffffffffffffffff1916817bffffffffffffffffffffffffffffffffffffffffffffffffffffffff1916149150506122e0565b600190505b949350505050565b60007f01ffc9a7000000000000000000000000000000000000000000000000000000007bffffffffffffffffffffffffffffffffffffffffffffffffffffffff1916827bffffffffffffffffffffffffffffffffffffffffffffffffffffffff1916149050919050565b505050565b600073ffffffffffffffffffffffffffffffffffffffff168273ffffffffffffffffffffffffffffffffffffffff1614156123c7576040517f08c379a00000000000000000000000000000000000000000000000000000000081526004016123be90613a98565b60405180910390fd5b6123d0816110f7565b15612410576040517f08c379a000000000000000000000000000000000000000000000000000000000815260040161240790613b04565b60405180910390fd5b61241c60008383611e6c565b6001600360008473ffffffffffffffffffffffffffffffffffffffff1673ffffffffffffffffffffffffffffffffffffffff168152602001908152602001600020600082825461246c9190613472565b92505081905550816002600083815260200190815260200160002060006101000a81548173ffffffffffffffffffffffffffffffffffffffff021916908373ffffffffffffffffffffffffffffffffffffffff160217905550808273ffffffffffffffffffffffffffffffffffffffff16600073ffffffffffffffffffffffffffffffffffffffff167fddf252ad1be2c89b69c2b068fc378daa952ba7f163c4a11628f55a4df523b3ef60405160405180910390a461252d60008383611ec4565b5050565b6000808273ffffffffffffffffffffffffffffffffffffffff163b119050919050565b6000604051905090565b600080fd5b600080fd5b60007fffffffff0000000000000000000000000000000000000000000000000000000082169050919050565b61259d81612568565b81146125a857600080fd5b50565b6000813590506125ba81612594565b92915050565b6000602082840312156125d6576125d561255e565b5b60006125e4848285016125ab565b91505092915050565b60008115159050919050565b612602816125ed565b82525050565b600060208201905061261d60008301846125f9565b92915050565b600081519050919050565b600082825260208201905092915050565b60005b8381101561265d578082015181840152602081019050612642565b8381111561266c576000848401525b50505050565b6000601f19601f8301169050919050565b600061268e82612623565b612698818561262e565b93506126a881856020860161263f565b6126b181612672565b840191505092915050565b600060208201905081810360008301526126d68184612683565b905092915050565b6000819050919050565b6126f1816126de565b81146126fc57600080fd5b50565b60008135905061270e816126e8565b92915050565b60006020828403121561272a5761272961255e565b5b6000612738848285016126ff565b91505092915050565b600073ffffffffffffffffffffffffffffffffffffffff82169050919050565b600061276c82612741565b9050919050565b61277c81612761565b82525050565b60006020820190506127976000830184612773565b92915050565b6127a681612761565b81146127b157600080fd5b50565b6000813590506127c38161279d565b92915050565b600080604083850312156127e0576127df61255e565b5b60006127ee858286016127b4565b92505060206127ff858286016126ff565b9150509250929050565b6000806000606084860312156128225761282161255e565b5b6000612830868287016127b4565b9350506020612841868287016127b4565b9250506040612852868287016126ff565b9150509250925092565b6000819050919050565b61286f8161285c565b811461287a57600080fd5b50565b60008135905061288c81612866565b92915050565b6000602082840312156128a8576128a761255e565b5b60006128b68482850161287d565b91505092915050565b6128c88161285c565b82525050565b60006020820190506128e360008301846128bf565b92915050565b60008060408385031215612900576128ff61255e565b5b600061290e8582860161287d565b925050602061291f858286016127b4565b9150509250929050565b60006020828403121561293f5761293e61255e565b5b600061294d848285016127b4565b91505092915050565b61295f816126de565b82525050565b600060208201905061297a6000830184612956565b92915050565b612989816125ed565b811461299457600080fd5b50565b6000813590506129a681612980565b92915050565b600080604083850312156129c3576129c261255e565b5b60006129d1858286016127b4565b92505060206129e285828601612997565b9150509250929050565b600080fd5b600080fd5b7f4e487b7100000000000000000000000000000000000000000000000000000000600052604160045260246000fd5b612a2e82612672565b810181811067ffffffffffffffff82111715612a4d57612a4c6129f6565b5b80604052505050565b6000612a60612554565b9050612a6c8282612a25565b919050565b600067ffffffffffffffff821115612a8c57612a8b6129f6565b5b612a9582612672565b9050602081019050919050565b82818337600083830152505050565b6000612ac4612abf84612a71565b612a56565b905082815260208101848484011115612ae057612adf6129f1565b5b612aeb848285612aa2565b509392505050565b600082601f830112612b0857612b076129ec565b5b8135612b18848260208601612ab1565b91505092915050565b60008060008060808587031215612b3b57612b3a61255e565b5b6000612b49878288016127b4565b9450506020612b5a878288016127b4565b9350506040612b6b878288016126ff565b925050606085013567ffffffffffffffff811115612b8c57612b8b612563565b5b612b9887828801612af3565b91505092959194509250565b60008060408385031215612bbb57612bba61255e565b5b6000612bc9858286016127b4565b9250506020612bda858286016127b4565b9150509250929050565b7f4e487b7100000000000000000000000000000000000000000000000000000000600052602260045260246000fd5b60006002820490506001821680612c2b57607f821691505b60208210811415612c3f57612c3e612be4565b5b50919050565b7f4552433732313a20617070726f76656420717565727920666f72206e6f6e657860008201527f697374656e7420746f6b656e0000000000000000000000000000000000000000602082015250565b6000612ca1602c8361262e565b9150612cac82612c45565b604082019050919050565b60006020820190508181036000830152612cd081612c94565b9050919050565b7f4552433732313a20617070726f76616c20746f2063757272656e74206f776e6560008201527f7200000000000000000000000000000000000000000000000000000000000000602082015250565b6000612d3360218361262e565b9150612d3e82612cd7565b604082019050919050565b60006020820190508181036000830152612d6281612d26565b9050919050565b7f4552433732313a20617070726f76652063616c6c6572206973206e6f74206f7760008201527f6e6572206e6f7220617070726f76656420666f7220616c6c0000000000000000602082015250565b6000612dc560388361262e565b9150612dd082612d69565b604082019050919050565b60006020820190508181036000830152612df481612db8565b9050919050565b7f4552433732313a207472616e736665722063616c6c6572206973206e6f74206f60008201527f776e6572206e6f7220617070726f766564000000000000000000000000000000602082015250565b6000612e5760318361262e565b9150612e6282612dfb565b604082019050919050565b60006020820190508181036000830152612e8681612e4a565b9050919050565b7f416363657373436f6e74726f6c3a2063616e206f6e6c792072656e6f756e636560008201527f20726f6c657320666f722073656c660000000000000000000000000000000000602082015250565b6000612ee9602f8361262e565b9150612ef482612e8d565b604082019050919050565b60006020820190508181036000830152612f1881612edc565b9050919050565b7f416363657373436f6e74726f6c3a204164647265737320646f6573206e6f742060008201527f686176652076616c696420526967687473000000000000000000000000000000602082015250565b6000612f7b60318361262e565b9150612f8682612f1f565b604082019050919050565b60006020820190508181036000830152612faa81612f6e565b9050919050565b7f4552433732314275726e61626c653a2063616c6c6572206973206e6f74206f7760008201527f6e6572206e6f7220617070726f76656400000000000000000000000000000000602082015250565b600061300d60308361262e565b915061301882612fb1565b604082019050919050565b6000602082019050818103600083015261303c81613000565b9050919050565b7f4552433732313a206f776e657220717565727920666f72206e6f6e657869737460008201527f656e7420746f6b656e0000000000000000000000000000000000000000000000602082015250565b600061309f60298361262e565b91506130aa82613043565b604082019050919050565b600060208201905081810360008301526130ce81613092565b9050919050565b7f4552433732313a2062616c616e636520717565727920666f7220746865207a6560008201527f726f206164647265737300000000000000000000000000000000000000000000602082015250565b6000613131602a8361262e565b915061313c826130d5565b604082019050919050565b6000602082019050818103600083015261316081613124565b9050919050565b7f4552433732314d657461646174613a2055524920717565727920666f72206e6f60008201527f6e6578697374656e7420746f6b656e0000000000000000000000000000000000602082015250565b60006131c3602f8361262e565b91506131ce82613167565b604082019050919050565b600060208201905081810360008301526131f2816131b6565b9050919050565b600081905092915050565b600061320f82612623565b61321981856131f9565b935061322981856020860161263f565b80840191505092915050565b60006132418285613204565b915061324d8284613204565b91508190509392505050565b7f4552433732313a206f70657261746f7220717565727920666f72206e6f6e657860008201527f697374656e7420746f6b656e0000000000000000000000000000000000000000602082015250565b60006132b5602c8361262e565b91506132c082613259565b604082019050919050565b600060208201905081810360008301526132e4816132a8565b9050919050565b7f4552433732313a207472616e736665722066726f6d20696e636f72726563742060008201527f6f776e6572000000000000000000000000000000000000000000000000000000602082015250565b600061334760258361262e565b9150613352826132eb565b604082019050919050565b600060208201905081810360008301526133768161333a565b9050919050565b7f4552433732313a207472616e7366657220746f20746865207a65726f2061646460008201527f7265737300000000000000000000000000000000000000000000000000000000602082015250565b60006133d960248361262e565b91506133e48261337d565b604082019050919050565b60006020820190508181036000830152613408816133cc565b9050919050565b7f4e487b7100000000000000000000000000000000000000000000000000000000600052601160045260246000fd5b6000613449826126de565b9150613454836126de565b9250828210156134675761346661340f565b5b828203905092915050565b600061347d826126de565b9150613488836126de565b9250827fffffffffffffffffffffffffffffffffffffffffffffffffffffffffffffffff038211156134bd576134bc61340f565b5b828201905092915050565b7f416363657373436f6e74726f6c3a206163636f756e7420000000000000000000600082015250565b60006134fe6017836131f9565b9150613509826134c8565b601782019050919050565b7f206973206d697373696e6720726f6c6520000000000000000000000000000000600082015250565b600061354a6011836131f9565b915061355582613514565b601182019050919050565b600061356b826134f1565b91506135778285613204565b91506135828261353d565b915061358e8284613204565b91508190509392505050565b7f5061757361626c653a206e6f7420706175736564000000000000000000000000600082015250565b60006135d060148361262e565b91506135db8261359a565b602082019050919050565b600060208201905081810360008301526135ff816135c3565b9050919050565b7f5061757361626c653a2070617573656400000000000000000000000000000000600082015250565b600061363c60108361262e565b915061364782613606565b602082019050919050565b6000602082019050818103600083015261366b8161362f565b9050919050565b7f4552433732313a20617070726f766520746f2063616c6c657200000000000000600082015250565b60006136a860198361262e565b91506136b382613672565b602082019050919050565b600060208201905081810360008301526136d78161369b565b9050919050565b7f4552433732313a207472616e7366657220746f206e6f6e20455243373231526560008201527f63656976657220696d706c656d656e7465720000000000000000000000000000602082015250565b600061373a60328361262e565b9150613745826136de565b604082019050919050565b600060208201905081810360008301526137698161372d565b9050919050565b600061377b826126de565b91507fffffffffffffffffffffffffffffffffffffffffffffffffffffffffffffffff8214156137ae576137ad61340f565b5b600182019050919050565b7f4e487b7100000000000000000000000000000000000000000000000000000000600052601260045260246000fd5b60006137f3826126de565b91506137fe836126de565b92508261380e5761380d6137b9565b5b828204905092915050565b6000613824826126de565b915061382f836126de565b92508261383f5761383e6137b9565b5b828206905092915050565b7f4e487b7100000000000000000000000000000000000000000000000000000000600052603260045260246000fd5b6000613884826126de565b915061388f836126de565b9250817fffffffffffffffffffffffffffffffffffffffffffffffffffffffffffffffff04831182151516156138c8576138c761340f565b5b828202905092915050565b60006138de826126de565b915060008214156138f2576138f161340f565b5b600182039050919050565b7f537472696e67733a20686578206c656e67746820696e73756666696369656e74600082015250565b600061393360208361262e565b915061393e826138fd565b602082019050919050565b6000602082019050818103600083015261396281613926565b9050919050565b600081519050919050565b600082825260208201905092915050565b600061399082613969565b61399a8185613974565b93506139aa81856020860161263f565b6139b381612672565b840191505092915050565b60006080820190506139d36000830187612773565b6139e06020830186612773565b6139ed6040830185612956565b81810360608301526139ff8184613985565b905095945050505050565b600081519050613a1981612594565b92915050565b600060208284031215613a3557613a3461255e565b5b6000613a4384828501613a0a565b91505092915050565b7f4552433732313a206d696e7420746f20746865207a65726f2061646472657373600082015250565b6000613a8260208361262e565b9150613a8d82613a4c565b602082019050919050565b60006020820190508181036000830152613ab181613a75565b9050919050565b7f4552433732313a20746f6b656e20616c7265616479206d696e74656400000000600082015250565b6000613aee601c8361262e565b9150613af982613ab8565b602082019050919050565b60006020820190508181036000830152613b1d81613ae1565b905091905056fea264697066735822122092979c1d9d1d4e21ccf89358f30069ed17742f6277fa5979399382846c416a3664736f6c634300080b0033",
  "immutableReferences": {},
  "source": "// SPDX-License-Identifier: MIT\npragma solidity ^0.8.2;\n\nimport \"@openzeppelin/contracts/token/ERC721/ERC721.sol\";\nimport \"@openzeppelin/contracts/security/Pausable.sol\";\nimport \"@openzeppelin/contracts/access/AccessControl.sol\";\nimport \"@openzeppelin/contracts/token/ERC721/extensions/ERC721Burnable.sol\";\n\ncontract LuckyMintNFT is ERC721, Pausable, AccessControl, ERC721Burnable {\n    bytes32 public constant CEO = keccak256(\"CEO\");\n    bytes32 public constant CTO = keccak256(\"CTO\");\n    bytes32 public constant CFO = keccak256(\"CFO\");\n    \n    modifier validate() {\n        require(\n            hasRole(CEO, msg.sender) ||\n                hasRole(CFO, msg.sender) ||\n                hasRole(CTO, msg.sender),\n            \"AccessControl: Address does not have valid Rights\"\n        );\n        _;\n    }\n\n    constructor() ERC721(\"Lucky Mint NFT\", \"LMNFT\") {\n        _grantRole(DEFAULT_ADMIN_ROLE, msg.sender);\n        _grantRole(CEO, msg.sender);\n    }\n\n    function pause() public validate{\n        _pause();\n    }\n\n    function unpause() public validate {\n        _unpause();\n    }\n\n    function safeMint(address to, uint256 tokenId) public validate {\n        if (_exists(tokenId)){\n            _burn(tokenId);\n        }\n        _safeMint(to, tokenId);\n    }\n\n    function _beforeTokenTransfer(address from, address to, uint256 tokenId)\n        internal\n        whenNotPaused\n        override\n    {\n        super._beforeTokenTransfer(from, to, tokenId);\n    }\n\n    // The following functions are overrides required by Solidity.\n\n    function supportsInterface(bytes4 interfaceId)\n        public\n        view\n        override(ERC721, AccessControl)\n        returns (bool)\n    {\n        return super.supportsInterface(interfaceId);\n    }\n}\n",
  "sourcePath": "/home/pranav/avalor/maticLottery/contracts/LuckyMintNFT.sol",
  "compiler": {
    "name": "solc",
    "version": "0.8.11+commit.d7f03943.Emscripten.clang"
  },
  "schemaVersion": "3.4.4",
  "updatedAt": "2022-02-18T17:10:28.784Z",
  "devdoc": {
    "kind": "dev",
    "methods": {
      "approve(address,uint256)": {
        "details": "See {IERC721-approve}."
      },
      "balanceOf(address)": {
        "details": "See {IERC721-balanceOf}."
      },
      "burn(uint256)": {
        "details": "Burns `tokenId`. See {ERC721-_burn}. Requirements: - The caller must own `tokenId` or be an approved operator."
      },
      "getApproved(uint256)": {
        "details": "See {IERC721-getApproved}."
      },
      "getRoleAdmin(bytes32)": {
        "details": "Returns the admin role that controls `role`. See {grantRole} and {revokeRole}. To change a role's admin, use {_setRoleAdmin}."
      },
      "grantRole(bytes32,address)": {
        "details": "Grants `role` to `account`. If `account` had not been already granted `role`, emits a {RoleGranted} event. Requirements: - the caller must have ``role``'s admin role."
      },
      "hasRole(bytes32,address)": {
        "details": "Returns `true` if `account` has been granted `role`."
      },
      "isApprovedForAll(address,address)": {
        "details": "See {IERC721-isApprovedForAll}."
      },
      "name()": {
        "details": "See {IERC721Metadata-name}."
      },
      "ownerOf(uint256)": {
        "details": "See {IERC721-ownerOf}."
      },
      "paused()": {
        "details": "Returns true if the contract is paused, and false otherwise."
      },
      "renounceRole(bytes32,address)": {
        "details": "Revokes `role` from the calling account. Roles are often managed via {grantRole} and {revokeRole}: this function's purpose is to provide a mechanism for accounts to lose their privileges if they are compromised (such as when a trusted device is misplaced). If the calling account had been revoked `role`, emits a {RoleRevoked} event. Requirements: - the caller must be `account`."
      },
      "revokeRole(bytes32,address)": {
        "details": "Revokes `role` from `account`. If `account` had been granted `role`, emits a {RoleRevoked} event. Requirements: - the caller must have ``role``'s admin role."
      },
      "safeTransferFrom(address,address,uint256)": {
        "details": "See {IERC721-safeTransferFrom}."
      },
      "safeTransferFrom(address,address,uint256,bytes)": {
        "details": "See {IERC721-safeTransferFrom}."
      },
      "setApprovalForAll(address,bool)": {
        "details": "See {IERC721-setApprovalForAll}."
      },
      "symbol()": {
        "details": "See {IERC721Metadata-symbol}."
      },
      "tokenURI(uint256)": {
        "details": "See {IERC721Metadata-tokenURI}."
      },
      "transferFrom(address,address,uint256)": {
        "details": "See {IERC721-transferFrom}."
      }
    },
    "version": 1
  },
  "userdoc": {
    "kind": "user",
    "methods": {},
    "version": 1
  }
}